{
  "abi": [
    {
      "inputs": [],
      "stateMutability": "nonpayable",
      "type": "constructor"
    },
    {
      "anonymous": false,
      "inputs": [
        {
          "indexed": true,
          "internalType": "address",
          "name": "owner",
          "type": "address"
        },
        {
          "indexed": true,
          "internalType": "address",
          "name": "approved",
          "type": "address"
        },
        {
          "indexed": true,
          "internalType": "uint256",
          "name": "tokenId",
          "type": "uint256"
        }
      ],
      "name": "Approval",
      "type": "event"
    },
    {
      "anonymous": false,
      "inputs": [
        {
          "indexed": true,
          "internalType": "address",
          "name": "owner",
          "type": "address"
        },
        {
          "indexed": true,
          "internalType": "address",
          "name": "operator",
          "type": "address"
        },
        {
          "indexed": false,
          "internalType": "bool",
          "name": "approved",
          "type": "bool"
        }
      ],
      "name": "ApprovalForAll",
      "type": "event"
    },
    {
      "anonymous": false,
      "inputs": [
        {
          "indexed": false,
          "internalType": "uint256",
          "name": "_fromTokenId",
          "type": "uint256"
        },
        {
          "indexed": false,
          "internalType": "uint256",
          "name": "_toTokenId",
          "type": "uint256"
        }
      ],
      "name": "BatchMetadataUpdate",
      "type": "event"
    },
    {
      "anonymous": false,
      "inputs": [
        {
          "indexed": false,
          "internalType": "uint256",
          "name": "_tokenId",
          "type": "uint256"
        }
      ],
      "name": "MetadataUpdate",
      "type": "event"
    },
    {
      "anonymous": false,
      "inputs": [
        {
          "indexed": true,
          "internalType": "address",
          "name": "from",
          "type": "address"
        },
        {
          "indexed": true,
          "internalType": "address",
          "name": "to",
          "type": "address"
        },
        {
          "indexed": true,
          "internalType": "uint256",
          "name": "tokenId",
          "type": "uint256"
        }
      ],
      "name": "Transfer",
      "type": "event"
    },
    {
      "inputs": [
        {
          "internalType": "address",
          "name": "to",
          "type": "address"
        },
        {
          "internalType": "uint256",
          "name": "tokenId",
          "type": "uint256"
        }
      ],
      "name": "approve",
      "outputs": [],
      "stateMutability": "nonpayable",
      "type": "function"
    },
    {
      "inputs": [
        {
          "internalType": "address",
          "name": "owner",
          "type": "address"
        }
      ],
      "name": "balanceOf",
      "outputs": [
        {
          "internalType": "uint256",
          "name": "",
          "type": "uint256"
        }
      ],
      "stateMutability": "view",
      "type": "function"
    },
    {
      "inputs": [
        {
          "internalType": "uint256",
          "name": "tokenId",
          "type": "uint256"
        }
      ],
      "name": "getApproved",
      "outputs": [
        {
          "internalType": "address",
          "name": "",
          "type": "address"
        }
      ],
      "stateMutability": "view",
      "type": "function"
    },
    {
      "inputs": [
        {
          "internalType": "address",
          "name": "user",
          "type": "address"
        },
        {
          "internalType": "int256",
          "name": "page",
          "type": "int256"
        }
      ],
      "name": "getTokenURIByOwner",
      "outputs": [
        {
          "internalType": "string[10]",
          "name": "",
          "type": "string[10]"
        }
      ],
      "stateMutability": "view",
      "type": "function"
    },
    {
      "inputs": [
        {
          "internalType": "address",
          "name": "owner",
          "type": "address"
        },
        {
          "internalType": "address",
          "name": "operator",
          "type": "address"
        }
      ],
      "name": "isApprovedForAll",
      "outputs": [
        {
          "internalType": "bool",
          "name": "",
          "type": "bool"
        }
      ],
      "stateMutability": "view",
      "type": "function"
    },
    {
      "inputs": [
        {
          "internalType": "address",
          "name": "user",
          "type": "address"
        },
        {
          "internalType": "string",
          "name": "tokenURI",
          "type": "string"
        }
      ],
      "name": "mint",
      "outputs": [
        {
          "internalType": "uint256",
          "name": "",
          "type": "uint256"
        }
      ],
      "stateMutability": "nonpayable",
      "type": "function"
    },
    {
      "inputs": [],
      "name": "name",
      "outputs": [
        {
          "internalType": "string",
          "name": "",
          "type": "string"
        }
      ],
      "stateMutability": "view",
      "type": "function"
    },
    {
      "inputs": [
        {
          "internalType": "uint256",
          "name": "tokenId",
          "type": "uint256"
        }
      ],
      "name": "ownerOf",
      "outputs": [
        {
          "internalType": "address",
          "name": "",
          "type": "address"
        }
      ],
      "stateMutability": "view",
      "type": "function"
    },
    {
      "inputs": [
        {
          "internalType": "address",
          "name": "from",
          "type": "address"
        },
        {
          "internalType": "address",
          "name": "to",
          "type": "address"
        },
        {
          "internalType": "uint256",
          "name": "tokenId",
          "type": "uint256"
        }
      ],
      "name": "safeTransferFrom",
      "outputs": [],
      "stateMutability": "nonpayable",
      "type": "function"
    },
    {
      "inputs": [
        {
          "internalType": "address",
          "name": "from",
          "type": "address"
        },
        {
          "internalType": "address",
          "name": "to",
          "type": "address"
        },
        {
          "internalType": "uint256",
          "name": "tokenId",
          "type": "uint256"
        },
        {
          "internalType": "bytes",
          "name": "data",
          "type": "bytes"
        }
      ],
      "name": "safeTransferFrom",
      "outputs": [],
      "stateMutability": "nonpayable",
      "type": "function"
    },
    {
      "inputs": [
        {
          "internalType": "address",
          "name": "operator",
          "type": "address"
        },
        {
          "internalType": "bool",
          "name": "approved",
          "type": "bool"
        }
      ],
      "name": "setApprovalForAll",
      "outputs": [],
      "stateMutability": "nonpayable",
      "type": "function"
    },
    {
      "inputs": [
        {
          "internalType": "bytes4",
          "name": "interfaceId",
          "type": "bytes4"
        }
      ],
      "name": "supportsInterface",
      "outputs": [
        {
          "internalType": "bool",
          "name": "",
          "type": "bool"
        }
      ],
      "stateMutability": "view",
      "type": "function"
    },
    {
      "inputs": [],
      "name": "symbol",
      "outputs": [
        {
          "internalType": "string",
          "name": "",
          "type": "string"
        }
      ],
      "stateMutability": "view",
      "type": "function"
    },
    {
      "inputs": [
        {
          "internalType": "uint256",
          "name": "tokenId",
          "type": "uint256"
        }
      ],
      "name": "tokenURI",
      "outputs": [
        {
          "internalType": "string",
          "name": "",
          "type": "string"
        }
      ],
      "stateMutability": "view",
      "type": "function"
    },
    {
      "inputs": [
        {
          "internalType": "address",
          "name": "from",
          "type": "address"
        },
        {
          "internalType": "address",
          "name": "to",
          "type": "address"
        },
        {
          "internalType": "uint256",
          "name": "tokenId",
          "type": "uint256"
        }
      ],
      "name": "transferFrom",
      "outputs": [],
      "stateMutability": "nonpayable",
      "type": "function"
    }
  ],
  "bytecode": {
    "object": "0x60806040523480156200001157600080fd5b5060405180604001604052806008815260200167466f726b446f6d6560c01b8152506040518060400160405280600381526020016246444d60e81b81525081600090816200006091906200011d565b5060016200006f82826200011d565b505050620001e9565b634e487b7160e01b600052604160045260246000fd5b600181811c90821680620000a357607f821691505b602082108103620000c457634e487b7160e01b600052602260045260246000fd5b50919050565b601f8211156200011857600081815260208120601f850160051c81016020861015620000f35750805b601f850160051c820191505b818110156200011457828155600101620000ff565b5050505b505050565b81516001600160401b0381111562000139576200013962000078565b62000151816200014a84546200008e565b84620000ca565b602080601f831160018114620001895760008415620001705750858301515b600019600386901b1c1916600185901b17855562000114565b600085815260208120601f198616915b82811015620001ba5788860151825594840194600190910190840162000199565b5085821015620001d95787850151600019600388901b60f8161c191681555b5050505050600190811b01905550565b6118f180620001f96000396000f3fe608060405234801561001057600080fd5b50600436106100f55760003560e01c80636352211e11610097578063b88d4fde11610066578063b88d4fde1461020c578063c87b56dd1461021f578063d0def52114610232578063e985e9c51461024557600080fd5b80636352211e146101bd57806370a08231146101d057806395d89b41146101f1578063a22cb465146101f957600080fd5b8063095ea7b3116100d3578063095ea7b31461016257806323b872dd14610177578063396212921461018a57806342842e0e146101aa57600080fd5b806301ffc9a7146100fa57806306fdde0314610122578063081812fc14610137575b600080fd5b61010d610108366004611225565b610281565b60405190151581526020015b60405180910390f35b61012a6102ac565b6040516101199190611292565b61014a6101453660046112a5565b61033e565b6040516001600160a01b039091168152602001610119565b6101756101703660046112da565b610365565b005b610175610185366004611304565b61047f565b61019d6101983660046112da565b6104b0565b6040516101199190611340565b6101756101b8366004611304565b610611565b61014a6101cb3660046112a5565b61062c565b6101e36101de36600461138e565b61068c565b604051908152602001610119565b61012a610712565b6101756102073660046113a9565b610721565b61017561021a366004611471565b610730565b61012a61022d3660046112a5565b610768565b6101e36102403660046114ed565b610878565b61010d61025336600461154f565b6001600160a01b03918216600090815260056020908152604080832093909416825291909152205460ff1690565b60006001600160e01b03198216632483248360e11b14806102a657506102a6826108af565b92915050565b6060600080546102bb90611582565b80601f01602080910402602001604051908101604052809291908181526020018280546102e790611582565b80156103345780601f1061030957610100808354040283529160200191610334565b820191906000526020600020905b81548152906001019060200180831161031757829003601f168201915b5050505050905090565b6000610349826108ff565b506000908152600460205260409020546001600160a01b031690565b60006103708261062c565b9050806001600160a01b0316836001600160a01b0316036103e25760405162461bcd60e51b815260206004820152602160248201527f4552433732313a20617070726f76616c20746f2063757272656e74206f776e656044820152603960f91b60648201526084015b60405180910390fd5b336001600160a01b03821614806103fe57506103fe8133610253565b6104705760405162461bcd60e51b815260206004820152603d60248201527f4552433732313a20617070726f76652063616c6c6572206973206e6f7420746f60448201527f6b656e206f776e6572206f7220617070726f76656420666f7220616c6c00000060648201526084016103d9565b61047a8383610961565b505050565b61048933826109cf565b6104a55760405162461bcd60e51b81526004016103d9906115bc565b61047a838383610a4d565b6104b86111e7565b6104c06111e7565b60008060005b6007548110156105a357866001600160a01b03166104e38261062c565b6001600160a01b031603610591576104fa81610768565b8484600a811061050c5761050c611609565b60200201528261051b81611635565b935050600a83106105915785820361053957839450505050506102a6565b816105438161164e565b9250506000925060005b600a81101561058f57604051806020016040528060008152508582600a811061057857610578611609565b60200201528061058781611635565b91505061054d565b505b8061059b81611635565b9150506104c6565b506105af600186611666565b8113156105c1578293505050506102a6565b60005b600a81101561060657604051806020016040528060008152508482600a81106105ef576105ef611609565b6020020152806105fe81611635565b9150506105c4565b509195945050505050565b61047a83838360405180602001604052806000815250610730565b6000818152600260205260408120546001600160a01b0316806102a65760405162461bcd60e51b8152602060048201526018602482015277115490cdcc8c4e881a5b9d985b1a59081d1bdad95b88125160421b60448201526064016103d9565b60006001600160a01b0382166106f65760405162461bcd60e51b815260206004820152602960248201527f4552433732313a2061646472657373207a65726f206973206e6f7420612076616044820152683634b21037bbb732b960b91b60648201526084016103d9565b506001600160a01b031660009081526003602052604090205490565b6060600180546102bb90611582565b61072c338383610bb1565b5050565b61073a33836109cf565b6107565760405162461bcd60e51b81526004016103d9906115bc565b61076284848484610c7f565b50505050565b6060610773826108ff565b6000828152600660205260408120805461078c90611582565b80601f01602080910402602001604051908101604052809291908181526020018280546107b890611582565b80156108055780601f106107da57610100808354040283529160200191610805565b820191906000526020600020905b8154815290600101906020018083116107e857829003601f168201915b50505050509050600061082360408051602081019091526000815290565b90508051600003610835575092915050565b81511561086757808260405160200161084f92919061168d565b60405160208183030381529060405292505050919050565b61087084610cb2565b949350505050565b60008061088460075490565b90506108908482610d25565b61089a8184610eb0565b6108a8600780546001019055565b9392505050565b60006001600160e01b031982166380ac58cd60e01b14806108e057506001600160e01b03198216635b5e139f60e01b145b806102a657506301ffc9a760e01b6001600160e01b03198316146102a6565b6000818152600260205260409020546001600160a01b031661095e5760405162461bcd60e51b8152602060048201526018602482015277115490cdcc8c4e881a5b9d985b1a59081d1bdad95b88125160421b60448201526064016103d9565b50565b600081815260046020526040902080546001600160a01b0319166001600160a01b03841690811790915581906109968261062c565b6001600160a01b03167f8c5be1e5ebec7d5bd14f71427d1e84f3dd0314c0f7b2291e5b200ac8c7c3b92560405160405180910390a45050565b6000806109db8361062c565b9050806001600160a01b0316846001600160a01b03161480610a2257506001600160a01b0380821660009081526005602090815260408083209388168352929052205460ff165b806108705750836001600160a01b0316610a3b8461033e565b6001600160a01b031614949350505050565b826001600160a01b0316610a608261062c565b6001600160a01b031614610a865760405162461bcd60e51b81526004016103d9906116bc565b6001600160a01b038216610ae85760405162461bcd60e51b8152602060048201526024808201527f4552433732313a207472616e7366657220746f20746865207a65726f206164646044820152637265737360e01b60648201526084016103d9565b826001600160a01b0316610afb8261062c565b6001600160a01b031614610b215760405162461bcd60e51b81526004016103d9906116bc565b600081815260046020908152604080832080546001600160a01b03199081169091556001600160a01b0387811680865260038552838620805460001901905590871680865283862080546001019055868652600290945282852080549092168417909155905184937fddf252ad1be2c89b69c2b068fc378daa952ba7f163c4a11628f55a4df523b3ef91a4505050565b816001600160a01b0316836001600160a01b031603610c125760405162461bcd60e51b815260206004820152601960248201527f4552433732313a20617070726f766520746f2063616c6c65720000000000000060448201526064016103d9565b6001600160a01b03838116600081815260056020908152604080832094871680845294825291829020805460ff191686151590811790915591519182527f17307eab39ab6107e8899845ad3d59bd9653f200f220920489ca2b5937696c31910160405180910390a3505050565b610c8a848484610a4d565b610c9684848484610f7b565b6107625760405162461bcd60e51b81526004016103d990611701565b6060610cbd826108ff565b6000610cd460408051602081019091526000815290565b90506000815111610cf457604051806020016040528060008152506108a8565b80610cfe8461107c565b604051602001610d0f92919061168d565b6040516020818303038152906040529392505050565b6001600160a01b038216610d7b5760405162461bcd60e51b815260206004820181905260248201527f4552433732313a206d696e7420746f20746865207a65726f206164647265737360448201526064016103d9565b6000818152600260205260409020546001600160a01b031615610de05760405162461bcd60e51b815260206004820152601c60248201527f4552433732313a20746f6b656e20616c7265616479206d696e7465640000000060448201526064016103d9565b6000818152600260205260409020546001600160a01b031615610e455760405162461bcd60e51b815260206004820152601c60248201527f4552433732313a20746f6b656e20616c7265616479206d696e7465640000000060448201526064016103d9565b6001600160a01b038216600081815260036020908152604080832080546001019055848352600290915280822080546001600160a01b0319168417905551839291907fddf252ad1be2c89b69c2b068fc378daa952ba7f163c4a11628f55a4df523b3ef908290a45050565b6000828152600260205260409020546001600160a01b0316610f2b5760405162461bcd60e51b815260206004820152602e60248201527f45524337323155524953746f726167653a2055524920736574206f66206e6f6e60448201526d32bc34b9ba32b73a103a37b5b2b760911b60648201526084016103d9565b6000828152600660205260409020610f4382826117a1565b506040518281527ff8e1a15aba9398e019f0b49df1a4fde98ee17ae345cb5f6b5e2c27f5033e8ce79060200160405180910390a15050565b60006001600160a01b0384163b1561107157604051630a85bd0160e11b81526001600160a01b0385169063150b7a0290610fbf903390899088908890600401611861565b6020604051808303816000875af1925050508015610ffa575060408051601f3d908101601f19168201909252610ff79181019061189e565b60015b611057573d808015611028576040519150601f19603f3d011682016040523d82523d6000602084013e61102d565b606091505b50805160000361104f5760405162461bcd60e51b81526004016103d990611701565b805181602001fd5b6001600160e01b031916630a85bd0160e11b149050610870565b506001949350505050565b606060006110898361110f565b600101905060008167ffffffffffffffff8111156110a9576110a96113e5565b6040519080825280601f01601f1916602001820160405280156110d3576020820181803683370190505b5090508181016020015b600019016f181899199a1a9b1b9c1cb0b131b232b360811b600a86061a8153600a85049450846110dd57509392505050565b60008072184f03e93ff9f4daa797ed6e38ed64bf6a1f0160401b831061114e5772184f03e93ff9f4daa797ed6e38ed64bf6a1f0160401b830492506040015b6d04ee2d6d415b85acef8100000000831061117a576d04ee2d6d415b85acef8100000000830492506020015b662386f26fc10000831061119857662386f26fc10000830492506010015b6305f5e10083106111b0576305f5e100830492506008015b61271083106111c457612710830492506004015b606483106111d6576064830492506002015b600a83106102a65760010192915050565b604051806101400160405280600a905b60608152602001906001900390816111f75790505090565b6001600160e01b03198116811461095e57600080fd5b60006020828403121561123757600080fd5b81356108a88161120f565b60005b8381101561125d578181015183820152602001611245565b50506000910152565b6000815180845261127e816020860160208601611242565b601f01601f19169290920160200192915050565b6020815260006108a86020830184611266565b6000602082840312156112b757600080fd5b5035919050565b80356001600160a01b03811681146112d557600080fd5b919050565b600080604083850312156112ed57600080fd5b6112f6836112be565b946020939093013593505050565b60008060006060848603121561131957600080fd5b611322846112be565b9250611330602085016112be565b9150604084013590509250925092565b6020808252600090610160830183820185845b600a81101561138257601f19878503018352611370848351611266565b93509184019190840190600101611353565b50919695505050505050565b6000602082840312156113a057600080fd5b6108a8826112be565b600080604083850312156113bc57600080fd5b6113c5836112be565b9150602083013580151581146113da57600080fd5b809150509250929050565b634e487b7160e01b600052604160045260246000fd5b600067ffffffffffffffff80841115611416576114166113e5565b604051601f8501601f19908116603f0116810190828211818310171561143e5761143e6113e5565b8160405280935085815286868601111561145757600080fd5b858560208301376000602087830101525050509392505050565b6000806000806080858703121561148757600080fd5b611490856112be565b935061149e602086016112be565b925060408501359150606085013567ffffffffffffffff8111156114c157600080fd5b8501601f810187136114d257600080fd5b6114e1878235602084016113fb565b91505092959194509250565b6000806040838503121561150057600080fd5b611509836112be565b9150602083013567ffffffffffffffff81111561152557600080fd5b8301601f8101851361153657600080fd5b611545858235602084016113fb565b9150509250929050565b6000806040838503121561156257600080fd5b61156b836112be565b9150611579602084016112be565b90509250929050565b600181811c9082168061159657607f821691505b6020821081036115b657634e487b7160e01b600052602260045260246000fd5b50919050565b6020808252602d908201527f4552433732313a2063616c6c6572206973206e6f7420746f6b656e206f776e6560408201526c1c881bdc88185c1c1c9bdd9959609a1b606082015260800190565b634e487b7160e01b600052603260045260246000fd5b634e487b7160e01b600052601160045260246000fd5b6000600182016116475761164761161f565b5060010190565b60006001600160ff1b0182016116475761164761161f565b81810360008312801583831316838312821617156116865761168661161f565b5092915050565b6000835161169f818460208801611242565b8351908301906116b3818360208801611242565b01949350505050565b60208082526025908201527f4552433732313a207472616e736665722066726f6d20696e636f72726563742060408201526437bbb732b960d91b606082015260800190565b60208082526032908201527f4552433732313a207472616e7366657220746f206e6f6e20455243373231526560408201527131b2b4bb32b91034b6b83632b6b2b73a32b960711b606082015260800190565b601f82111561047a57600081815260208120601f850160051c8101602086101561177a5750805b601f850160051c820191505b8181101561179957828155600101611786565b505050505050565b815167ffffffffffffffff8111156117bb576117bb6113e5565b6117cf816117c98454611582565b84611753565b602080601f83116001811461180457600084156117ec5750858301515b600019600386901b1c1916600185901b178555611799565b600085815260208120601f198616915b8281101561183357888601518255948401946001909101908401611814565b50858210156118515787850151600019600388901b60f8161c191681555b5050505050600190811b01905550565b6001600160a01b038581168252841660208201526040810183905260806060820181905260009061189490830184611266565b9695505050505050565b6000602082840312156118b057600080fd5b81516108a88161120f56fea264697066735822122088c45f585e0563d936870556876db9de5a4f35049d3a404f6da6dd0f5a4f7a7f64736f6c63430008140033",
    "linkReferences": {}
  },
  "methodIdentifiers": {
    "approve(address,uint256)": "095ea7b3",
    "balanceOf(address)": "70a08231",
    "getApproved(uint256)": "081812fc",
    "getTokenURIByOwner(address,int256)": "39621292",
    "isApprovedForAll(address,address)": "e985e9c5",
    "mint(address,string)": "d0def521",
    "name()": "06fdde03",
    "ownerOf(uint256)": "6352211e",
    "safeTransferFrom(address,address,uint256)": "42842e0e",
    "safeTransferFrom(address,address,uint256,bytes)": "b88d4fde",
    "setApprovalForAll(address,bool)": "a22cb465",
    "supportsInterface(bytes4)": "01ffc9a7",
    "symbol()": "95d89b41",
    "tokenURI(uint256)": "c87b56dd",
    "transferFrom(address,address,uint256)": "23b872dd"
  },
  "id": 35
}