{
  "abi": [
    {
      "inputs": [],
      "stateMutability": "nonpayable",
      "type": "constructor"
    },
    {
      "anonymous": false,
      "inputs": [
        {
          "indexed": true,
          "internalType": "address",
          "name": "owner",
          "type": "address"
        },
        {
          "indexed": true,
          "internalType": "address",
          "name": "approved",
          "type": "address"
        },
        {
          "indexed": true,
          "internalType": "uint256",
          "name": "tokenId",
          "type": "uint256"
        }
      ],
      "name": "Approval",
      "type": "event"
    },
    {
      "anonymous": false,
      "inputs": [
        {
          "indexed": true,
          "internalType": "address",
          "name": "owner",
          "type": "address"
        },
        {
          "indexed": true,
          "internalType": "address",
          "name": "operator",
          "type": "address"
        },
        {
          "indexed": false,
          "internalType": "bool",
          "name": "approved",
          "type": "bool"
        }
      ],
      "name": "ApprovalForAll",
      "type": "event"
    },
    {
      "anonymous": false,
      "inputs": [
        {
          "indexed": false,
          "internalType": "uint256",
          "name": "_fromTokenId",
          "type": "uint256"
        },
        {
          "indexed": false,
          "internalType": "uint256",
          "name": "_toTokenId",
          "type": "uint256"
        }
      ],
      "name": "BatchMetadataUpdate",
      "type": "event"
    },
    {
      "anonymous": false,
      "inputs": [
        {
          "indexed": false,
          "internalType": "uint256",
          "name": "_tokenId",
          "type": "uint256"
        }
      ],
      "name": "MetadataUpdate",
      "type": "event"
    },
    {
      "anonymous": false,
      "inputs": [
        {
          "indexed": true,
          "internalType": "address",
          "name": "from",
          "type": "address"
        },
        {
          "indexed": true,
          "internalType": "address",
          "name": "to",
          "type": "address"
        },
        {
          "indexed": true,
          "internalType": "uint256",
          "name": "tokenId",
          "type": "uint256"
        }
      ],
      "name": "Transfer",
      "type": "event"
    },
    {
      "inputs": [
        {
          "internalType": "address",
          "name": "to",
          "type": "address"
        },
        {
          "internalType": "uint256",
          "name": "tokenId",
          "type": "uint256"
        }
      ],
      "name": "approve",
      "outputs": [],
      "stateMutability": "nonpayable",
      "type": "function"
    },
    {
      "inputs": [
        {
          "internalType": "address",
          "name": "owner",
          "type": "address"
        }
      ],
      "name": "balanceOf",
      "outputs": [
        {
          "internalType": "uint256",
          "name": "",
          "type": "uint256"
        }
      ],
      "stateMutability": "view",
      "type": "function"
    },
    {
      "inputs": [
        {
          "internalType": "uint256",
          "name": "tokenId",
          "type": "uint256"
        }
      ],
      "name": "getApproved",
      "outputs": [
        {
          "internalType": "address",
          "name": "",
          "type": "address"
        }
      ],
      "stateMutability": "view",
      "type": "function"
    },
    {
      "inputs": [
        {
          "internalType": "address",
          "name": "user",
          "type": "address"
        },
        {
          "internalType": "uint256",
          "name": "page",
          "type": "uint256"
        }
      ],
      "name": "getTokenURIByOwner",
      "outputs": [
        {
          "internalType": "string[10]",
          "name": "",
          "type": "string[10]"
        }
      ],
      "stateMutability": "view",
      "type": "function"
    },
    {
      "inputs": [
        {
          "internalType": "address",
          "name": "owner",
          "type": "address"
        },
        {
          "internalType": "address",
          "name": "operator",
          "type": "address"
        }
      ],
      "name": "isApprovedForAll",
      "outputs": [
        {
          "internalType": "bool",
          "name": "",
          "type": "bool"
        }
      ],
      "stateMutability": "view",
      "type": "function"
    },
    {
      "inputs": [
        {
          "internalType": "address",
          "name": "user",
          "type": "address"
        },
        {
          "internalType": "string",
          "name": "tokenURI",
          "type": "string"
        }
      ],
      "name": "mint",
      "outputs": [
        {
          "internalType": "uint256",
          "name": "",
          "type": "uint256"
        }
      ],
      "stateMutability": "nonpayable",
      "type": "function"
    },
    {
      "inputs": [],
      "name": "name",
      "outputs": [
        {
          "internalType": "string",
          "name": "",
          "type": "string"
        }
      ],
      "stateMutability": "view",
      "type": "function"
    },
    {
      "inputs": [
        {
          "internalType": "uint256",
          "name": "tokenId",
          "type": "uint256"
        }
      ],
      "name": "ownerOf",
      "outputs": [
        {
          "internalType": "address",
          "name": "",
          "type": "address"
        }
      ],
      "stateMutability": "view",
      "type": "function"
    },
    {
      "inputs": [
        {
          "internalType": "address",
          "name": "from",
          "type": "address"
        },
        {
          "internalType": "address",
          "name": "to",
          "type": "address"
        },
        {
          "internalType": "uint256",
          "name": "tokenId",
          "type": "uint256"
        }
      ],
      "name": "safeTransferFrom",
      "outputs": [],
      "stateMutability": "nonpayable",
      "type": "function"
    },
    {
      "inputs": [
        {
          "internalType": "address",
          "name": "from",
          "type": "address"
        },
        {
          "internalType": "address",
          "name": "to",
          "type": "address"
        },
        {
          "internalType": "uint256",
          "name": "tokenId",
          "type": "uint256"
        },
        {
          "internalType": "bytes",
          "name": "data",
          "type": "bytes"
        }
      ],
      "name": "safeTransferFrom",
      "outputs": [],
      "stateMutability": "nonpayable",
      "type": "function"
    },
    {
      "inputs": [
        {
          "internalType": "address",
          "name": "operator",
          "type": "address"
        },
        {
          "internalType": "bool",
          "name": "approved",
          "type": "bool"
        }
      ],
      "name": "setApprovalForAll",
      "outputs": [],
      "stateMutability": "nonpayable",
      "type": "function"
    },
    {
      "inputs": [
        {
          "internalType": "bytes4",
          "name": "interfaceId",
          "type": "bytes4"
        }
      ],
      "name": "supportsInterface",
      "outputs": [
        {
          "internalType": "bool",
          "name": "",
          "type": "bool"
        }
      ],
      "stateMutability": "view",
      "type": "function"
    },
    {
      "inputs": [],
      "name": "symbol",
      "outputs": [
        {
          "internalType": "string",
          "name": "",
          "type": "string"
        }
      ],
      "stateMutability": "view",
      "type": "function"
    },
    {
      "inputs": [
        {
          "internalType": "uint256",
          "name": "tokenId",
          "type": "uint256"
        }
      ],
      "name": "tokenURI",
      "outputs": [
        {
          "internalType": "string",
          "name": "",
          "type": "string"
        }
      ],
      "stateMutability": "view",
      "type": "function"
    },
    {
      "inputs": [
        {
          "internalType": "address",
          "name": "from",
          "type": "address"
        },
        {
          "internalType": "address",
          "name": "to",
          "type": "address"
        },
        {
          "internalType": "uint256",
          "name": "tokenId",
          "type": "uint256"
        }
      ],
      "name": "transferFrom",
      "outputs": [],
      "stateMutability": "nonpayable",
      "type": "function"
    }
  ],
  "bytecode": {
    "object": "0x60806040523480156200001157600080fd5b5060405180604001604052806008815260200167466f726b446f6d6560c01b8152506040518060400160405280600381526020016246444d60e81b81525081600090816200006091906200011d565b5060016200006f82826200011d565b505050620001e9565b634e487b7160e01b600052604160045260246000fd5b600181811c90821680620000a357607f821691505b602082108103620000c457634e487b7160e01b600052602260045260246000fd5b50919050565b601f8211156200011857600081815260208120601f850160051c81016020861015620000f35750805b601f850160051c820191505b818110156200011457828155600101620000ff565b5050505b505050565b81516001600160401b0381111562000139576200013962000078565b62000151816200014a84546200008e565b84620000ca565b602080601f831160018114620001895760008415620001705750858301515b600019600386901b1c1916600185901b17855562000114565b600085815260208120601f198616915b82811015620001ba5788860151825594840194600190910190840162000199565b5085821015620001d95787850151600019600388901b60f8161c191681555b5050505050600190811b01905550565b61180180620001f96000396000f3fe608060405234801561001057600080fd5b50600436106100f55760003560e01c80636fcae17c11610097578063b88d4fde11610066578063b88d4fde1461020c578063c87b56dd1461021f578063d0def52114610232578063e985e9c51461024557600080fd5b80636fcae17c146101b057806370a08231146101d057806395d89b41146101f1578063a22cb465146101f957600080fd5b8063095ea7b3116100d3578063095ea7b31461016257806323b872dd1461017757806342842e0e1461018a5780636352211e1461019d57600080fd5b806301ffc9a7146100fa57806306fdde0314610122578063081812fc14610137575b600080fd5b61010d61010836600461117c565b610281565b60405190151581526020015b60405180910390f35b61012a6102ac565b60405161011991906111e9565b61014a6101453660046111fc565b61033e565b6040516001600160a01b039091168152602001610119565b610175610170366004611231565b610365565b005b61017561018536600461125b565b61047f565b61017561019836600461125b565b6104b0565b61014a6101ab3660046111fc565b6104cb565b6101c36101be366004611231565b61052b565b6040516101199190611297565b6101e36101de3660046112e5565b6105e3565b604051908152602001610119565b61012a610669565b610175610207366004611300565b610678565b61017561021a3660046113c8565b610687565b61012a61022d3660046111fc565b6106bf565b6101e3610240366004611444565b6107cf565b61010d6102533660046114a6565b6001600160a01b03918216600090815260056020908152604080832093909416825291909152205460ff1690565b60006001600160e01b03198216632483248360e11b14806102a657506102a682610806565b92915050565b6060600080546102bb906114d9565b80601f01602080910402602001604051908101604052809291908181526020018280546102e7906114d9565b80156103345780601f1061030957610100808354040283529160200191610334565b820191906000526020600020905b81548152906001019060200180831161031757829003601f168201915b5050505050905090565b600061034982610856565b506000908152600460205260409020546001600160a01b031690565b6000610370826104cb565b9050806001600160a01b0316836001600160a01b0316036103e25760405162461bcd60e51b815260206004820152602160248201527f4552433732313a20617070726f76616c20746f2063757272656e74206f776e656044820152603960f91b60648201526084015b60405180910390fd5b336001600160a01b03821614806103fe57506103fe8133610253565b6104705760405162461bcd60e51b815260206004820152603d60248201527f4552433732313a20617070726f76652063616c6c6572206973206e6f7420746f60448201527f6b656e206f776e6572206f7220617070726f76656420666f7220616c6c00000060648201526084016103d9565b61047a83836108b8565b505050565b6104893382610926565b6104a55760405162461bcd60e51b81526004016103d990611513565b61047a8383836109a4565b61047a83838360405180602001604052806000815250610687565b6000818152600260205260408120546001600160a01b0316806102a65760405162461bcd60e51b8152602060048201526018602482015277115490cdcc8c4e881a5b9d985b1a59081d1bdad95b88125160421b60448201526064016103d9565b61053361113e565b61053b61113e565b60008060005b6007548110156105d857866001600160a01b031661055e826104cb565b6001600160a01b0316036105c657610575816106bf565b8484600a811061058757610587611560565b60200201528261059681611576565b935050600a83106105c6578582036105b457839450505050506102a6565b816105be81611576565b925050600092505b806105d081611576565b915050610541565b509195945050505050565b60006001600160a01b03821661064d5760405162461bcd60e51b815260206004820152602960248201527f4552433732313a2061646472657373207a65726f206973206e6f7420612076616044820152683634b21037bbb732b960b91b60648201526084016103d9565b506001600160a01b031660009081526003602052604090205490565b6060600180546102bb906114d9565b610683338383610b08565b5050565b6106913383610926565b6106ad5760405162461bcd60e51b81526004016103d990611513565b6106b984848484610bd6565b50505050565b60606106ca82610856565b600082815260066020526040812080546106e3906114d9565b80601f016020809104026020016040519081016040528092919081815260200182805461070f906114d9565b801561075c5780601f106107315761010080835404028352916020019161075c565b820191906000526020600020905b81548152906001019060200180831161073f57829003601f168201915b50505050509050600061077a60408051602081019091526000815290565b9050805160000361078c575092915050565b8151156107be5780826040516020016107a692919061159d565b60405160208183030381529060405292505050919050565b6107c784610c09565b949350505050565b6000806107db60075490565b90506107e78482610c7c565b6107f18184610e07565b6107ff600780546001019055565b9392505050565b60006001600160e01b031982166380ac58cd60e01b148061083757506001600160e01b03198216635b5e139f60e01b145b806102a657506301ffc9a760e01b6001600160e01b03198316146102a6565b6000818152600260205260409020546001600160a01b03166108b55760405162461bcd60e51b8152602060048201526018602482015277115490cdcc8c4e881a5b9d985b1a59081d1bdad95b88125160421b60448201526064016103d9565b50565b600081815260046020526040902080546001600160a01b0319166001600160a01b03841690811790915581906108ed826104cb565b6001600160a01b03167f8c5be1e5ebec7d5bd14f71427d1e84f3dd0314c0f7b2291e5b200ac8c7c3b92560405160405180910390a45050565b600080610932836104cb565b9050806001600160a01b0316846001600160a01b0316148061097957506001600160a01b0380821660009081526005602090815260408083209388168352929052205460ff165b806107c75750836001600160a01b03166109928461033e565b6001600160a01b031614949350505050565b826001600160a01b03166109b7826104cb565b6001600160a01b0316146109dd5760405162461bcd60e51b81526004016103d9906115cc565b6001600160a01b038216610a3f5760405162461bcd60e51b8152602060048201526024808201527f4552433732313a207472616e7366657220746f20746865207a65726f206164646044820152637265737360e01b60648201526084016103d9565b826001600160a01b0316610a52826104cb565b6001600160a01b031614610a785760405162461bcd60e51b81526004016103d9906115cc565b600081815260046020908152604080832080546001600160a01b03199081169091556001600160a01b0387811680865260038552838620805460001901905590871680865283862080546001019055868652600290945282852080549092168417909155905184937fddf252ad1be2c89b69c2b068fc378daa952ba7f163c4a11628f55a4df523b3ef91a4505050565b816001600160a01b0316836001600160a01b031603610b695760405162461bcd60e51b815260206004820152601960248201527f4552433732313a20617070726f766520746f2063616c6c65720000000000000060448201526064016103d9565b6001600160a01b03838116600081815260056020908152604080832094871680845294825291829020805460ff191686151590811790915591519182527f17307eab39ab6107e8899845ad3d59bd9653f200f220920489ca2b5937696c31910160405180910390a3505050565b610be18484846109a4565b610bed84848484610ed2565b6106b95760405162461bcd60e51b81526004016103d990611611565b6060610c1482610856565b6000610c2b60408051602081019091526000815290565b90506000815111610c4b57604051806020016040528060008152506107ff565b80610c5584610fd3565b604051602001610c6692919061159d565b6040516020818303038152906040529392505050565b6001600160a01b038216610cd25760405162461bcd60e51b815260206004820181905260248201527f4552433732313a206d696e7420746f20746865207a65726f206164647265737360448201526064016103d9565b6000818152600260205260409020546001600160a01b031615610d375760405162461bcd60e51b815260206004820152601c60248201527f4552433732313a20746f6b656e20616c7265616479206d696e7465640000000060448201526064016103d9565b6000818152600260205260409020546001600160a01b031615610d9c5760405162461bcd60e51b815260206004820152601c60248201527f4552433732313a20746f6b656e20616c7265616479206d696e7465640000000060448201526064016103d9565b6001600160a01b038216600081815260036020908152604080832080546001019055848352600290915280822080546001600160a01b0319168417905551839291907fddf252ad1be2c89b69c2b068fc378daa952ba7f163c4a11628f55a4df523b3ef908290a45050565b6000828152600260205260409020546001600160a01b0316610e825760405162461bcd60e51b815260206004820152602e60248201527f45524337323155524953746f726167653a2055524920736574206f66206e6f6e60448201526d32bc34b9ba32b73a103a37b5b2b760911b60648201526084016103d9565b6000828152600660205260409020610e9a82826116b1565b506040518281527ff8e1a15aba9398e019f0b49df1a4fde98ee17ae345cb5f6b5e2c27f5033e8ce79060200160405180910390a15050565b60006001600160a01b0384163b15610fc857604051630a85bd0160e11b81526001600160a01b0385169063150b7a0290610f16903390899088908890600401611771565b6020604051808303816000875af1925050508015610f51575060408051601f3d908101601f19168201909252610f4e918101906117ae565b60015b610fae573d808015610f7f576040519150601f19603f3d011682016040523d82523d6000602084013e610f84565b606091505b508051600003610fa65760405162461bcd60e51b81526004016103d990611611565b805181602001fd5b6001600160e01b031916630a85bd0160e11b1490506107c7565b506001949350505050565b60606000610fe083611066565b600101905060008167ffffffffffffffff8111156110005761100061133c565b6040519080825280601f01601f19166020018201604052801561102a576020820181803683370190505b5090508181016020015b600019016f181899199a1a9b1b9c1cb0b131b232b360811b600a86061a8153600a850494508461103457509392505050565b60008072184f03e93ff9f4daa797ed6e38ed64bf6a1f0160401b83106110a55772184f03e93ff9f4daa797ed6e38ed64bf6a1f0160401b830492506040015b6d04ee2d6d415b85acef810000000083106110d1576d04ee2d6d415b85acef8100000000830492506020015b662386f26fc1000083106110ef57662386f26fc10000830492506010015b6305f5e1008310611107576305f5e100830492506008015b612710831061111b57612710830492506004015b6064831061112d576064830492506002015b600a83106102a65760010192915050565b604051806101400160405280600a905b606081526020019060019003908161114e5790505090565b6001600160e01b0319811681146108b557600080fd5b60006020828403121561118e57600080fd5b81356107ff81611166565b60005b838110156111b457818101518382015260200161119c565b50506000910152565b600081518084526111d5816020860160208601611199565b601f01601f19169290920160200192915050565b6020815260006107ff60208301846111bd565b60006020828403121561120e57600080fd5b5035919050565b80356001600160a01b038116811461122c57600080fd5b919050565b6000806040838503121561124457600080fd5b61124d83611215565b946020939093013593505050565b60008060006060848603121561127057600080fd5b61127984611215565b925061128760208501611215565b9150604084013590509250925092565b6020808252600090610160830183820185845b600a8110156112d957601f198785030183526112c78483516111bd565b935091840191908401906001016112aa565b50919695505050505050565b6000602082840312156112f757600080fd5b6107ff82611215565b6000806040838503121561131357600080fd5b61131c83611215565b91506020830135801515811461133157600080fd5b809150509250929050565b634e487b7160e01b600052604160045260246000fd5b600067ffffffffffffffff8084111561136d5761136d61133c565b604051601f8501601f19908116603f011681019082821181831017156113955761139561133c565b816040528093508581528686860111156113ae57600080fd5b858560208301376000602087830101525050509392505050565b600080600080608085870312156113de57600080fd5b6113e785611215565b93506113f560208601611215565b925060408501359150606085013567ffffffffffffffff81111561141857600080fd5b8501601f8101871361142957600080fd5b61143887823560208401611352565b91505092959194509250565b6000806040838503121561145757600080fd5b61146083611215565b9150602083013567ffffffffffffffff81111561147c57600080fd5b8301601f8101851361148d57600080fd5b61149c85823560208401611352565b9150509250929050565b600080604083850312156114b957600080fd5b6114c283611215565b91506114d060208401611215565b90509250929050565b600181811c908216806114ed57607f821691505b60208210810361150d57634e487b7160e01b600052602260045260246000fd5b50919050565b6020808252602d908201527f4552433732313a2063616c6c6572206973206e6f7420746f6b656e206f776e6560408201526c1c881bdc88185c1c1c9bdd9959609a1b606082015260800190565b634e487b7160e01b600052603260045260246000fd5b60006001820161159657634e487b7160e01b600052601160045260246000fd5b5060010190565b600083516115af818460208801611199565b8351908301906115c3818360208801611199565b01949350505050565b60208082526025908201527f4552433732313a207472616e736665722066726f6d20696e636f72726563742060408201526437bbb732b960d91b606082015260800190565b60208082526032908201527f4552433732313a207472616e7366657220746f206e6f6e20455243373231526560408201527131b2b4bb32b91034b6b83632b6b2b73a32b960711b606082015260800190565b601f82111561047a57600081815260208120601f850160051c8101602086101561168a5750805b601f850160051c820191505b818110156116a957828155600101611696565b505050505050565b815167ffffffffffffffff8111156116cb576116cb61133c565b6116df816116d984546114d9565b84611663565b602080601f83116001811461171457600084156116fc5750858301515b600019600386901b1c1916600185901b1785556116a9565b600085815260208120601f198616915b8281101561174357888601518255948401946001909101908401611724565b50858210156117615787850151600019600388901b60f8161c191681555b5050505050600190811b01905550565b6001600160a01b03858116825284166020820152604081018390526080606082018190526000906117a4908301846111bd565b9695505050505050565b6000602082840312156117c057600080fd5b81516107ff8161116656fea26469706673582212209a66401f19a9ac0a84c8dd970d4a42049535b92cf866c09d250adba48221760164736f6c63430008140033",
    "linkReferences": {}
  },
  "methodIdentifiers": {
    "approve(address,uint256)": "095ea7b3",
    "balanceOf(address)": "70a08231",
    "getApproved(uint256)": "081812fc",
    "getTokenURIByOwner(address,uint256)": "6fcae17c",
    "isApprovedForAll(address,address)": "e985e9c5",
    "mint(address,string)": "d0def521",
    "name()": "06fdde03",
    "ownerOf(uint256)": "6352211e",
    "safeTransferFrom(address,address,uint256)": "42842e0e",
    "safeTransferFrom(address,address,uint256,bytes)": "b88d4fde",
    "setApprovalForAll(address,bool)": "a22cb465",
    "supportsInterface(bytes4)": "01ffc9a7",
    "symbol()": "95d89b41",
    "tokenURI(uint256)": "c87b56dd",
    "transferFrom(address,address,uint256)": "23b872dd"
  },
  "id": 35
}