{
  "abi": [
    {
      "inputs": [
        {
          "internalType": "string",
          "name": "_greeting",
          "type": "string"
        }
      ],
      "stateMutability": "nonpayable",
      "type": "constructor"
    },
    {
      "inputs": [],
      "name": "greet",
      "outputs": [
        {
          "internalType": "string",
          "name": "",
          "type": "string"
        }
      ],
      "stateMutability": "view",
      "type": "function"
    },
    {
      "inputs": [
        {
          "internalType": "string",
          "name": "_greeting",
          "type": "string"
        }
      ],
      "name": "updateGreeting",
      "outputs": [],
      "stateMutability": "nonpayable",
      "type": "function"
    },
    {
      "inputs": [],
      "name": "version",
      "outputs": [
        {
          "internalType": "uint256",
          "name": "",
          "type": "uint256"
        }
      ],
      "stateMutability": "view",
      "type": "function"
    }
  ],
  "bytecode": {
    "object": "0x6080604052600060015534801561001557600080fd5b5060405161067e38038061067e8339810160408190526100349161005d565b600061004082826101af565b505061026e565b634e487b7160e01b600052604160045260246000fd5b6000602080838503121561007057600080fd5b82516001600160401b038082111561008757600080fd5b818501915085601f83011261009b57600080fd5b8151818111156100ad576100ad610047565b604051601f8201601f19908116603f011681019083821181831017156100d5576100d5610047565b8160405282815288868487010111156100ed57600080fd5b600093505b8284101561010f57848401860151818501870152928501926100f2565b600086848301015280965050505050505092915050565b600181811c9082168061013a57607f821691505b60208210810361015a57634e487b7160e01b600052602260045260246000fd5b50919050565b601f8211156101aa57600081815260208120601f850160051c810160208610156101875750805b601f850160051c820191505b818110156101a657828155600101610193565b5050505b505050565b81516001600160401b038111156101c8576101c8610047565b6101dc816101d68454610126565b84610160565b602080601f83116001811461021157600084156101f95750858301515b600019600386901b1c1916600185901b1785556101a6565b600085815260208120601f198616915b8281101561024057888601518255948401946001909101908401610221565b508582101561025e5787850151600019600388901b60f8161c191681555b5050505050600190811b01905550565b6104018061027d6000396000f3fe608060405234801561001057600080fd5b50600436106100415760003560e01c80632867cc441461004657806354fd4d501461005b578063cfae321714610077575b600080fd5b61005961005436600461015c565b61008c565b005b61006460015481565b6040519081526020015b60405180910390f35b61007f6100b4565b60405161006e919061020d565b600180600082825461009e919061025b565b90915550600090506100b0828261030b565b5050565b6060600080546100c390610282565b80601f01602080910402602001604051908101604052809291908181526020018280546100ef90610282565b801561013c5780601f106101115761010080835404028352916020019161013c565b820191906000526020600020905b81548152906001019060200180831161011f57829003601f168201915b5050505050905090565b634e487b7160e01b600052604160045260246000fd5b60006020828403121561016e57600080fd5b813567ffffffffffffffff8082111561018657600080fd5b818401915084601f83011261019a57600080fd5b8135818111156101ac576101ac610146565b604051601f8201601f19908116603f011681019083821181831017156101d4576101d4610146565b816040528281528760208487010111156101ed57600080fd5b826020860160208301376000928101602001929092525095945050505050565b600060208083528351808285015260005b8181101561023a5785810183015185820160400152820161021e565b506000604082860101526040601f19601f8301168501019250505092915050565b8082018082111561027c57634e487b7160e01b600052601160045260246000fd5b92915050565b600181811c9082168061029657607f821691505b6020821081036102b657634e487b7160e01b600052602260045260246000fd5b50919050565b601f82111561030657600081815260208120601f850160051c810160208610156102e35750805b601f850160051c820191505b81811015610302578281556001016102ef565b5050505b505050565b815167ffffffffffffffff81111561032557610325610146565b610339816103338454610282565b846102bc565b602080601f83116001811461036e57600084156103565750858301515b600019600386901b1c1916600185901b178555610302565b600085815260208120601f198616915b8281101561039d5788860151825594840194600190910190840161037e565b50858210156103bb5787850151600019600388901b60f8161c191681555b5050505050600190811b0190555056fea264697066735822122046a51e7869c3313ebb91517e6c60eab2217a3bbf134887bb361b55f53c09ec4364736f6c63430008140033",
    "linkReferences": {}
  },
  "methodIdentifiers": {
    "greet()": "cfae3217",
    "updateGreeting(string)": "2867cc44",
    "version()": "54fd4d50"
  },
  "id": 38
}